{
  "_format": "hh-sol-artifact-1",
  "contractName": "IdentityRegistry",
  "sourceName": "contracts/IdentityRegistry.sol",
  "abi": [
    {
      "inputs": [],
      "stateMutability": "nonpayable",
      "type": "constructor"
    },
    {
      "inputs": [
        {
          "internalType": "address",
          "name": "agentAddress",
          "type": "address"
        }
      ],
      "name": "AddressAlreadyRegistered",
      "type": "error"
    },
    {
      "inputs": [
        {
          "internalType": "uint256",
          "name": "agentId",
          "type": "uint256"
        }
      ],
      "name": "AgentNotFound",
      "type": "error"
    },
    {
      "inputs": [
        {
          "internalType": "string",
          "name": "domain",
          "type": "string"
        }
      ],
      "name": "DomainAlreadyRegistered",
      "type": "error"
    },
    {
      "inputs": [],
      "name": "InvalidAddress",
      "type": "error"
    },
    {
      "inputs": [],
      "name": "InvalidDomain",
      "type": "error"
    },
    {
      "inputs": [
        {
          "internalType": "address",
          "name": "caller",
          "type": "address"
        },
        {
          "internalType": "address",
          "name": "expected",
          "type": "address"
        }
      ],
      "name": "Unauthorized",
      "type": "error"
    },
    {
      "anonymous": false,
      "inputs": [
        {
          "indexed": true,
          "internalType": "uint256",
          "name": "agentId",
          "type": "uint256"
        },
        {
          "indexed": true,
          "internalType": "string",
          "name": "agentDomain",
          "type": "string"
        },
        {
          "indexed": true,
          "internalType": "address",
          "name": "agentAddress",
          "type": "address"
        }
      ],
      "name": "AgentRegistered",
      "type": "event"
    },
    {
      "anonymous": false,
      "inputs": [
        {
          "indexed": true,
          "internalType": "uint256",
          "name": "agentId",
          "type": "uint256"
        },
        {
          "indexed": false,
          "internalType": "string",
          "name": "previousAgentDomain",
          "type": "string"
        },
        {
          "indexed": true,
          "internalType": "string",
          "name": "newAgentDomain",
          "type": "string"
        },
        {
          "indexed": false,
          "internalType": "address",
          "name": "previousAgentAddress",
          "type": "address"
        },
        {
          "indexed": true,
          "internalType": "address",
          "name": "newAgentAddress",
          "type": "address"
        }
      ],
      "name": "AgentUpdated",
      "type": "event"
    },
    {
      "anonymous": false,
      "inputs": [
        {
          "indexed": true,
          "internalType": "address",
          "name": "from",
          "type": "address"
        },
        {
          "indexed": true,
          "internalType": "address",
          "name": "to",
          "type": "address"
        },
        {
          "indexed": true,
          "internalType": "uint256",
          "name": "tokenId",
          "type": "uint256"
        }
      ],
      "name": "Transfer",
      "type": "event"
    },
    {
      "inputs": [
        {
          "internalType": "address",
          "name": "owner",
          "type": "address"
        }
      ],
      "name": "balanceOf",
      "outputs": [
        {
          "internalType": "uint256",
          "name": "",
          "type": "uint256"
        }
      ],
      "stateMutability": "view",
      "type": "function"
    },
    {
      "inputs": [
        {
          "internalType": "uint256",
          "name": "agentId",
          "type": "uint256"
        }
      ],
      "name": "getAgent",
      "outputs": [
        {
          "internalType": "uint256",
          "name": "agentId_",
          "type": "uint256"
        },
        {
          "internalType": "string",
          "name": "agentDomain_",
          "type": "string"
        },
        {
          "internalType": "address",
          "name": "agentAddress_",
          "type": "address"
        }
      ],
      "stateMutability": "view",
      "type": "function"
    },
    {
      "inputs": [],
      "name": "name",
      "outputs": [
        {
          "internalType": "string",
          "name": "",
          "type": "string"
        }
      ],
      "stateMutability": "view",
      "type": "function"
    },
    {
      "inputs": [
        {
          "internalType": "string",
          "name": "agentDomain",
          "type": "string"
        },
        {
          "internalType": "address",
          "name": "agentAddress",
          "type": "address"
        }
      ],
      "name": "newAgent",
      "outputs": [
        {
          "internalType": "uint256",
          "name": "agentId_",
          "type": "uint256"
        }
      ],
      "stateMutability": "nonpayable",
      "type": "function"
    },
    {
      "inputs": [
        {
          "internalType": "uint256",
          "name": "tokenId",
          "type": "uint256"
        }
      ],
      "name": "ownerOf",
      "outputs": [
        {
          "internalType": "address",
          "name": "",
          "type": "address"
        }
      ],
      "stateMutability": "view",
      "type": "function"
    },
    {
      "inputs": [
        {
          "internalType": "address",
          "name": "agentAddress",
          "type": "address"
        }
      ],
      "name": "resolveAgentByAddress",
      "outputs": [
        {
          "internalType": "uint256",
          "name": "agentId_",
          "type": "uint256"
        },
        {
          "internalType": "string",
          "name": "agentDomain_",
          "type": "string"
        },
        {
          "internalType": "address",
          "name": "agentAddress_",
          "type": "address"
        }
      ],
      "stateMutability": "view",
      "type": "function"
    },
    {
      "inputs": [
        {
          "internalType": "string",
          "name": "agentDomain",
          "type": "string"
        }
      ],
      "name": "resolveAgentByDomain",
      "outputs": [
        {
          "internalType": "uint256",
          "name": "agentId_",
          "type": "uint256"
        },
        {
          "internalType": "string",
          "name": "agentDomain_",
          "type": "string"
        },
        {
          "internalType": "address",
          "name": "agentAddress_",
          "type": "address"
        }
      ],
      "stateMutability": "view",
      "type": "function"
    },
    {
      "inputs": [],
      "name": "symbol",
      "outputs": [
        {
          "internalType": "string",
          "name": "",
          "type": "string"
        }
      ],
      "stateMutability": "view",
      "type": "function"
    },
    {
      "inputs": [
        {
          "internalType": "uint256",
          "name": "agentId",
          "type": "uint256"
        },
        {
          "internalType": "string",
          "name": "newAgentDomain",
          "type": "string"
        },
        {
          "internalType": "address",
          "name": "newAgentAddress",
          "type": "address"
        }
      ],
      "name": "updateAgent",
      "outputs": [
        {
          "internalType": "bool",
          "name": "success_",
          "type": "bool"
        }
      ],
      "stateMutability": "nonpayable",
      "type": "function"
    }
  ],
  "bytecode": "0x608060405234801561001057600080fd5b506000600281905550611efa806100286000396000f3fe608060405234801561001057600080fd5b50600436106100935760003560e01c80636352211e116100665780636352211e1461014857806370a082311461017857806388282bc8146101a857806395d89b41146101da578063b2bdcc70146101f857610093565b806306fdde03146100985780632de5aaf7146100b65780633bfbbad7146100e85780634750d0fa14610118575b600080fd5b6100a061022a565b6040516100ad9190611449565b60405180910390f35b6100d060048036038101906100cb91906114ab565b610263565b6040516100df93929190611528565b60405180910390f35b61010260048036038101906100fd91906115f7565b6103b9565b60405161010f9190611686565b60405180910390f35b610132600480360381019061012d91906116a1565b610ae6565b60405161013f9190611701565b60405180910390f35b610162600480360381019061015d91906114ab565b610fa9565b60405161016f919061171c565b60405180910390f35b610192600480360381019061018d9190611737565b61105b565b60405161019f9190611701565b60405180910390f35b6101c260048036038101906101bd9190611737565b611109565b6040516101d193929190611528565b60405180910390f35b6101e2611254565b6040516101ef9190611449565b60405180910390f35b610212600480360381019061020d9190611764565b61128d565b60405161022193929190611528565b60405180910390f35b6040518060400160405280601781526020017f4552432d38303034204167656e74204964656e7469747900000000000000000081525081565b60006060600080600360008681526020019081526020016000209050600073ffffffffffffffffffffffffffffffffffffffff168160010160009054906101000a900473ffffffffffffffffffffffffffffffffffffffff1673ffffffffffffffffffffffffffffffffffffffff16036102f7576000604051806020016040528060008152506000935093509350506103b2565b849350806000018054610309906117e0565b80601f0160208091040260200160405190810160405280929190818152602001828054610335906117e0565b80156103825780601f1061035757610100808354040283529160200191610382565b820191906000526020600020905b81548152906001019060200180831161036557829003601f168201915b505050505092508060010160009054906101000a900473ffffffffffffffffffffffffffffffffffffffff169150505b9193909250565b600080600360008781526020019081526020016000209050600080600088815260200190815260200160002060009054906101000a900473ffffffffffffffffffffffffffffffffffffffff169050600073ffffffffffffffffffffffffffffffffffffffff168173ffffffffffffffffffffffffffffffffffffffff160361047957866040517f0ede97590000000000000000000000000000000000000000000000000000000081526004016104709190611701565b60405180910390fd5b8073ffffffffffffffffffffffffffffffffffffffff163373ffffffffffffffffffffffffffffffffffffffff16146104eb5733816040517f295a81c10000000000000000000000000000000000000000000000000000000081526004016104e2929190611811565b60405180910390fd5b60008686905014158015610520575060006004878760405161050e929190611879565b90815260200160405180910390205414155b801561055b5750816000016040516105389190611935565b60405180910390208686604051610550929190611971565b604051809103902014155b1561059f5785856040517f50cb29b30000000000000000000000000000000000000000000000000000000081526004016105969291906119b7565b60405180910390fd5b600073ffffffffffffffffffffffffffffffffffffffff168473ffffffffffffffffffffffffffffffffffffffff161415801561061c57506000600560008673ffffffffffffffffffffffffffffffffffffffff1673ffffffffffffffffffffffffffffffffffffffff1681526020019081526020016000205414155b8015610667575086600560008673ffffffffffffffffffffffffffffffffffffffff1673ffffffffffffffffffffffffffffffffffffffff1681526020019081526020016000205414155b156106a957836040517fef3c800b0000000000000000000000000000000000000000000000000000000081526004016106a0919061171c565b60405180910390fd5b60008260000180546106ba906117e0565b80601f01602080910402602001604051908101604052809291908181526020018280546106e6906117e0565b80156107335780601f1061070857610100808354040283529160200191610733565b820191906000526020600020905b81548152906001019060200180831161071657829003601f168201915b5050505050905060008360010160009054906101000a900473ffffffffffffffffffffffffffffffffffffffff169050600088889050146107cd576004846000016040516107819190611a73565b90815260200160405180910390206000905587878560000191826107a6929190611c5b565b5088600489896040516107ba929190611879565b9081526020016040518091039020819055505b600073ffffffffffffffffffffffffffffffffffffffff168673ffffffffffffffffffffffffffffffffffffffff1614610a4857600560008560010160009054906101000a900473ffffffffffffffffffffffffffffffffffffffff1673ffffffffffffffffffffffffffffffffffffffff1673ffffffffffffffffffffffffffffffffffffffff16815260200190815260200160002060009055858460010160006101000a81548173ffffffffffffffffffffffffffffffffffffffff021916908373ffffffffffffffffffffffffffffffffffffffff16021790555088600560008873ffffffffffffffffffffffffffffffffffffffff1673ffffffffffffffffffffffffffffffffffffffff1681526020019081526020016000208190555060018060008573ffffffffffffffffffffffffffffffffffffffff1673ffffffffffffffffffffffffffffffffffffffff168152602001908152602001600020600082825461093e9190611d5a565b9250508190555060018060008873ffffffffffffffffffffffffffffffffffffffff1673ffffffffffffffffffffffffffffffffffffffff16815260200190815260200160002060008282546109949190611d8e565b92505081905550856000808b815260200190815260200160002060006101000a81548173ffffffffffffffffffffffffffffffffffffffff021916908373ffffffffffffffffffffffffffffffffffffffff160217905550888673ffffffffffffffffffffffffffffffffffffffff168473ffffffffffffffffffffffffffffffffffffffff167fddf252ad1be2c89b69c2b068fc378daa952ba7f163c4a11628f55a4df523b3ef60405160405180910390a45b600194508360010160009054906101000a900473ffffffffffffffffffffffffffffffffffffffff1673ffffffffffffffffffffffffffffffffffffffff1684600001604051610a989190611a73565b60405180910390208a7fe9e7c6570c3acc64b4b8fbf1b06ccbe46bd2a5e5e147e9b960f58844e9a104ca8585604051610ad2929190611dc2565b60405180910390a450505050949350505050565b6000808484905003610b24576040517feb12798200000000000000000000000000000000000000000000000000000000815260040160405180910390fd5b600073ffffffffffffffffffffffffffffffffffffffff168273ffffffffffffffffffffffffffffffffffffffff1603610b8a576040517fe6c4247b00000000000000000000000000000000000000000000000000000000815260040160405180910390fd5b600060048585604051610b9e929190611879565b90815260200160405180910390205414610bf15783836040517f50cb29b3000000000000000000000000000000000000000000000000000000008152600401610be89291906119b7565b60405180910390fd5b6000600560008473ffffffffffffffffffffffffffffffffffffffff1673ffffffffffffffffffffffffffffffffffffffff1681526020019081526020016000205414610c7557816040517fef3c800b000000000000000000000000000000000000000000000000000000008152600401610c6c919061171c565b60405180910390fd5b8173ffffffffffffffffffffffffffffffffffffffff163373ffffffffffffffffffffffffffffffffffffffff1614610ce75733826040517f295a81c1000000000000000000000000000000000000000000000000000000008152600401610cde929190611811565b60405180910390fd5b6002600081546001019190508190559050604051806040016040528085858080601f016020809104026020016040519081016040528093929190818152602001838380828437600081840152601f19601f8201169050808301925050505050505081526020018373ffffffffffffffffffffffffffffffffffffffff16815250600360008381526020019081526020016000206000820151816000019081610d8f9190611df2565b5060208201518160010160006101000a81548173ffffffffffffffffffffffffffffffffffffffff021916908373ffffffffffffffffffffffffffffffffffffffff1602179055509050508060048585604051610ded929190611879565b90815260200160405180910390208190555080600560008473ffffffffffffffffffffffffffffffffffffffff1673ffffffffffffffffffffffffffffffffffffffff1681526020019081526020016000208190555060018060008473ffffffffffffffffffffffffffffffffffffffff1673ffffffffffffffffffffffffffffffffffffffff1681526020019081526020016000206000828254610e929190611d8e565b925050819055508160008083815260200190815260200160002060006101000a81548173ffffffffffffffffffffffffffffffffffffffff021916908373ffffffffffffffffffffffffffffffffffffffff160217905550808273ffffffffffffffffffffffffffffffffffffffff16600073ffffffffffffffffffffffffffffffffffffffff167fddf252ad1be2c89b69c2b068fc378daa952ba7f163c4a11628f55a4df523b3ef60405160405180910390a48173ffffffffffffffffffffffffffffffffffffffff168484604051610f6d929190611879565b6040518091039020827faef1fcdf962a03943b677ae3b92ef1b34c972aeef794ed6e9ba5f599b461883b60405160405180910390a49392505050565b60008060008084815260200190815260200160002060009054906101000a900473ffffffffffffffffffffffffffffffffffffffff169050600073ffffffffffffffffffffffffffffffffffffffff168173ffffffffffffffffffffffffffffffffffffffff160361105257826040517f0ede97590000000000000000000000000000000000000000000000000000000081526004016110499190611701565b60405180910390fd5b80915050919050565b60008073ffffffffffffffffffffffffffffffffffffffff168273ffffffffffffffffffffffffffffffffffffffff16036110c2576040517fe6c4247b00000000000000000000000000000000000000000000000000000000815260040160405180910390fd5b600160008373ffffffffffffffffffffffffffffffffffffffff1673ffffffffffffffffffffffffffffffffffffffff168152602001908152602001600020549050919050565b60006060600080600560008673ffffffffffffffffffffffffffffffffffffffff1673ffffffffffffffffffffffffffffffffffffffff1681526020019081526020016000205490506000810361117a5760006040518060200160405280600081525060009350935093505061124d565b60006003600083815260200190815260200160002090508194508060000180546111a3906117e0565b80601f01602080910402602001604051908101604052809291908181526020018280546111cf906117e0565b801561121c5780601f106111f15761010080835404028352916020019161121c565b820191906000526020600020905b8154815290600101906020018083116111ff57829003601f168201915b505050505093508060010160009054906101000a900473ffffffffffffffffffffffffffffffffffffffff16925050505b9193909250565b6040518060400160405280600581526020017f4147454e5400000000000000000000000000000000000000000000000000000081525081565b60006060600080600486866040516112a6929190611879565b9081526020016040518091039020549050600081036112df576000604051806020016040528060008152506000935093509350506113b2565b6000600360008381526020019081526020016000209050819450806000018054611308906117e0565b80601f0160208091040260200160405190810160405280929190818152602001828054611334906117e0565b80156113815780601f1061135657610100808354040283529160200191611381565b820191906000526020600020905b81548152906001019060200180831161136457829003601f168201915b505050505093508060010160009054906101000a900473ffffffffffffffffffffffffffffffffffffffff16925050505b9250925092565b600081519050919050565b600082825260208201905092915050565b60005b838110156113f35780820151818401526020810190506113d8565b60008484015250505050565b6000601f19601f8301169050919050565b600061141b826113b9565b61142581856113c4565b93506114358185602086016113d5565b61143e816113ff565b840191505092915050565b600060208201905081810360008301526114638184611410565b905092915050565b600080fd5b600080fd5b6000819050919050565b61148881611475565b811461149357600080fd5b50565b6000813590506114a58161147f565b92915050565b6000602082840312156114c1576114c061146b565b5b60006114cf84828501611496565b91505092915050565b6114e181611475565b82525050565b600073ffffffffffffffffffffffffffffffffffffffff82169050919050565b6000611512826114e7565b9050919050565b61152281611507565b82525050565b600060608201905061153d60008301866114d8565b818103602083015261154f8185611410565b905061155e6040830184611519565b949350505050565b600080fd5b600080fd5b600080fd5b60008083601f84011261158b5761158a611566565b5b8235905067ffffffffffffffff8111156115a8576115a761156b565b5b6020830191508360018202830111156115c4576115c3611570565b5b9250929050565b6115d481611507565b81146115df57600080fd5b50565b6000813590506115f1816115cb565b92915050565b600080600080606085870312156116115761161061146b565b5b600061161f87828801611496565b945050602085013567ffffffffffffffff8111156116405761163f611470565b5b61164c87828801611575565b9350935050604061165f878288016115e2565b91505092959194509250565b60008115159050919050565b6116808161166b565b82525050565b600060208201905061169b6000830184611677565b92915050565b6000806000604084860312156116ba576116b961146b565b5b600084013567ffffffffffffffff8111156116d8576116d7611470565b5b6116e486828701611575565b935093505060206116f7868287016115e2565b9150509250925092565b600060208201905061171660008301846114d8565b92915050565b60006020820190506117316000830184611519565b92915050565b60006020828403121561174d5761174c61146b565b5b600061175b848285016115e2565b91505092915050565b6000806020838503121561177b5761177a61146b565b5b600083013567ffffffffffffffff81111561179957611798611470565b5b6117a585828601611575565b92509250509250929050565b7f4e487b7100000000000000000000000000000000000000000000000000000000600052602260045260246000fd5b600060028204905060018216806117f857607f821691505b60208210810361180b5761180a6117b1565b5b50919050565b60006040820190506118266000830185611519565b6118336020830184611519565b9392505050565b600081905092915050565b82818337600083830152505050565b6000611860838561183a565b935061186d838584611845565b82840190509392505050565b6000611886828486611854565b91508190509392505050565b600081905092915050565b60008190508160005260206000209050919050565b600081546118bf816117e0565b6118c98186611892565b945060018216600081146118e457600181146118f95761192c565b60ff198316865281151582028601935061192c565b6119028561189d565b60005b8381101561192457815481890152600182019150602081019050611905565b838801955050505b50505092915050565b600061194182846118b2565b915081905092915050565b60006119588385611892565b9350611965838584611845565b82840190509392505050565b600061197e82848661194c565b91508190509392505050565b600061199683856113c4565b93506119a3838584611845565b6119ac836113ff565b840190509392505050565b600060208201905081810360008301526119d281848661198a565b90509392505050565b60008190508160005260206000209050919050565b600081546119fd816117e0565b611a07818661183a565b94506001821660008114611a225760018114611a3757611a6a565b60ff1983168652811515820286019350611a6a565b611a40856119db565b60005b83811015611a6257815481890152600182019150602081019050611a43565b838801955050505b50505092915050565b6000611a7f82846119f0565b915081905092915050565b600082905092915050565b7f4e487b7100000000000000000000000000000000000000000000000000000000600052604160045260246000fd5b60006020601f8301049050919050565b600082821b905092915050565b600060088302611b117fffffffffffffffffffffffffffffffffffffffffffffffffffffffffffffffff82611ad4565b611b1b8683611ad4565b95508019841693508086168417925050509392505050565b6000819050919050565b6000611b58611b53611b4e84611475565b611b33565b611475565b9050919050565b6000819050919050565b611b7283611b3d565b611b86611b7e82611b5f565b848454611ae1565b825550505050565b600090565b611b9b611b8e565b611ba6818484611b69565b505050565b5b81811015611bca57611bbf600082611b93565b600181019050611bac565b5050565b601f821115611c0f57611be0816119db565b611be984611ac4565b81016020851015611bf8578190505b611c0c611c0485611ac4565b830182611bab565b50505b505050565b600082821c905092915050565b6000611c3260001984600802611c14565b1980831691505092915050565b6000611c4b8383611c21565b9150826002028217905092915050565b611c658383611a8a565b67ffffffffffffffff811115611c7e57611c7d611a95565b5b611c8882546117e0565b611c93828285611bce565b6000601f831160018114611cc25760008415611cb0578287013590505b611cba8582611c3f565b865550611d22565b601f198416611cd0866119db565b60005b82811015611cf857848901358255600182019150602085019450602081019050611cd3565b86831015611d155784890135611d11601f891682611c21565b8355505b6001600288020188555050505b50505050505050565b7f4e487b7100000000000000000000000000000000000000000000000000000000600052601160045260246000fd5b6000611d6582611475565b9150611d7083611475565b9250828203905081811115611d8857611d87611d2b565b5b92915050565b6000611d9982611475565b9150611da483611475565b9250828201905080821115611dbc57611dbb611d2b565b5b92915050565b60006040820190508181036000830152611ddc8185611410565b9050611deb6020830184611519565b9392505050565b611dfb826113b9565b67ffffffffffffffff811115611e1457611e13611a95565b5b611e1e82546117e0565b611e29828285611bce565b600060209050601f831160018114611e5c5760008415611e4a578287015190505b611e548582611c3f565b865550611ebc565b601f198416611e6a866119db565b60005b82811015611e9257848901518255600182019150602085019450602081019050611e6d565b86831015611eaf5784890151611eab601f891682611c21565b8355505b6001600288020188555050505b50505050505056fea26469706673582212208defc1c3e08bc1b549fc38f8cb29c70a600a719f6f58825f2575a2e5480e951964736f6c63430008140033",
  "linkReferences": {},
  "deployedLinkReferences": {}
}