{
  "_format": "hh-sol-artifact-1",
  "contractName": "MockFlashLoanVault",
  "sourceName": "contracts/MockFlashLoanVault.sol",
  "abi": [
    {
      "inputs": [
        {
          "internalType": "address",
          "name": "_sentinelApi",
          "type": "address"
        }
      ],
      "stateMutability": "nonpayable",
      "type": "constructor"
    },
    {
      "anonymous": false,
      "inputs": [
        {
          "indexed": true,
          "internalType": "address",
          "name": "recipient",
          "type": "address"
        },
        {
          "indexed": false,
          "internalType": "uint256",
          "name": "amount",
          "type": "uint256"
        }
      ],
      "name": "FlashLoanExecuted",
      "type": "event"
    },
    {
      "anonymous": false,
      "inputs": [
        {
          "indexed": true,
          "internalType": "address",
          "name": "previousApi",
          "type": "address"
        },
        {
          "indexed": true,
          "internalType": "address",
          "name": "newApi",
          "type": "address"
        }
      ],
      "name": "SentinelApiUpdated",
      "type": "event"
    },
    {
      "inputs": [
        {
          "internalType": "address",
          "name": "recipient",
          "type": "address"
        },
        {
          "internalType": "uint256",
          "name": "amount",
          "type": "uint256"
        }
      ],
      "name": "executeMockFlashLoan",
      "outputs": [
        {
          "internalType": "bool",
          "name": "",
          "type": "bool"
        }
      ],
      "stateMutability": "nonpayable",
      "type": "function"
    },
    {
      "inputs": [],
      "name": "owner",
      "outputs": [
        {
          "internalType": "address",
          "name": "",
          "type": "address"
        }
      ],
      "stateMutability": "view",
      "type": "function"
    },
    {
      "inputs": [],
      "name": "sentinelApi",
      "outputs": [
        {
          "internalType": "address",
          "name": "",
          "type": "address"
        }
      ],
      "stateMutability": "view",
      "type": "function"
    },
    {
      "inputs": [
        {
          "internalType": "address",
          "name": "_sentinelApi",
          "type": "address"
        }
      ],
      "name": "setSentinelApi",
      "outputs": [],
      "stateMutability": "nonpayable",
      "type": "function"
    }
  ],
  "bytecode": "0x608060405234801561001057600080fd5b506040516109103803806109108339818101604052810190610032919061011c565b33600160006101000a81548173ffffffffffffffffffffffffffffffffffffffff021916908373ffffffffffffffffffffffffffffffffffffffff160217905550806000806101000a81548173ffffffffffffffffffffffffffffffffffffffff021916908373ffffffffffffffffffffffffffffffffffffffff16021790555050610149565b600080fd5b600073ffffffffffffffffffffffffffffffffffffffff82169050919050565b60006100e9826100be565b9050919050565b6100f9816100de565b811461010457600080fd5b50565b600081519050610116816100f0565b92915050565b600060208284031215610132576101316100b9565b5b600061014084828501610107565b91505092915050565b6107b8806101586000396000f3fe608060405234801561001057600080fd5b506004361061004c5760003560e01c80638da5cb5b146100515780639bb3e7971461006f578063a4db980e1461008b578063d0c99551146100a9575b600080fd5b6100596100d9565b604051610066919061044c565b60405180910390f35b61008960048036038101906100849190610498565b6100ff565b005b61009361024c565b6040516100a0919061044c565b60405180910390f35b6100c360048036038101906100be91906104fb565b610270565b6040516100d09190610556565b60405180910390f35b600160009054906101000a900473ffffffffffffffffffffffffffffffffffffffff1681565b600160009054906101000a900473ffffffffffffffffffffffffffffffffffffffff1673ffffffffffffffffffffffffffffffffffffffff163373ffffffffffffffffffffffffffffffffffffffff161461018f576040517f08c379a0000000000000000000000000000000000000000000000000000000008152600401610186906105ce565b60405180910390fd5b8073ffffffffffffffffffffffffffffffffffffffff1660008054906101000a900473ffffffffffffffffffffffffffffffffffffffff1673ffffffffffffffffffffffffffffffffffffffff167f89cd74a25127740d8c5155fbf525dd59550a2b1c82ec3ef5eec85336fa2ac16060405160405180910390a3806000806101000a81548173ffffffffffffffffffffffffffffffffffffffff021916908373ffffffffffffffffffffffffffffffffffffffff16021790555050565b60008054906101000a900473ffffffffffffffffffffffffffffffffffffffff1681565b60008060009054906101000a900473ffffffffffffffffffffffffffffffffffffffff1673ffffffffffffffffffffffffffffffffffffffff163373ffffffffffffffffffffffffffffffffffffffff1614610301576040517f08c379a00000000000000000000000000000000000000000000000000000000081526004016102f890610660565b60405180910390fd5b600073ffffffffffffffffffffffffffffffffffffffff168373ffffffffffffffffffffffffffffffffffffffff1603610370576040517f08c379a0000000000000000000000000000000000000000000000000000000008152600401610367906106cc565b60405180910390fd5b600082116103b3576040517f08c379a00000000000000000000000000000000000000000000000000000000081526004016103aa90610738565b60405180910390fd5b8273ffffffffffffffffffffffffffffffffffffffff167f601a662d311cd4ce5f0345feba42cb1b573094143c46c6f5bb901d6e8578a23a836040516103f99190610767565b60405180910390a26001905092915050565b600073ffffffffffffffffffffffffffffffffffffffff82169050919050565b60006104368261040b565b9050919050565b6104468161042b565b82525050565b6000602082019050610461600083018461043d565b92915050565b600080fd5b6104758161042b565b811461048057600080fd5b50565b6000813590506104928161046c565b92915050565b6000602082840312156104ae576104ad610467565b5b60006104bc84828501610483565b91505092915050565b6000819050919050565b6104d8816104c5565b81146104e357600080fd5b50565b6000813590506104f5816104cf565b92915050565b6000806040838503121561051257610511610467565b5b600061052085828601610483565b9250506020610531858286016104e6565b9150509250929050565b60008115159050919050565b6105508161053b565b82525050565b600060208201905061056b6000830184610547565b92915050565b600082825260208201905092915050565b7f4f6e6c79206f776e65722063616e2063616c6c00000000000000000000000000600082015250565b60006105b8601383610571565b91506105c382610582565b602082019050919050565b600060208201905081810360008301526105e7816105ab565b9050919050565b7f4f6e6c792053656e74696e656c204150492063616e207472696767657220666c60008201527f617368206c6f616e000000000000000000000000000000000000000000000000602082015250565b600061064a602883610571565b9150610655826105ee565b604082019050919050565b600060208201905081810360008301526106798161063d565b9050919050565b7f496e76616c696420726563697069656e74000000000000000000000000000000600082015250565b60006106b6601183610571565b91506106c182610680565b602082019050919050565b600060208201905081810360008301526106e5816106a9565b9050919050565b7f416d6f756e74206d7573742062652067726561746572207468616e207a65726f600082015250565b6000610722602083610571565b915061072d826106ec565b602082019050919050565b6000602082019050818103600083015261075181610715565b9050919050565b610761816104c5565b82525050565b600060208201905061077c6000830184610758565b9291505056fea26469706673582212206f166e1dba8995d7a47846d2129c5de414c8d5f3ab8070a27abd425bc256d20664736f6c63430008140033",
  "linkReferences": {},
  "deployedLinkReferences": {}
}