{
  "_format": "hh-sol-artifact-1",
  "contractName": "ReputationRegistry",
  "sourceName": "contracts/ReputationRegistry.sol",
  "abi": [
    {
      "inputs": [
        {
          "internalType": "address",
          "name": "identityRegistryAddress",
          "type": "address"
        }
      ],
      "stateMutability": "nonpayable",
      "type": "constructor"
    },
    {
      "inputs": [
        {
          "internalType": "uint256",
          "name": "agentId",
          "type": "uint256"
        }
      ],
      "name": "AgentNotFound",
      "type": "error"
    },
    {
      "inputs": [],
      "name": "InvalidIdentityRegistryAddress",
      "type": "error"
    },
    {
      "inputs": [
        {
          "internalType": "address",
          "name": "caller",
          "type": "address"
        },
        {
          "internalType": "address",
          "name": "expected",
          "type": "address"
        }
      ],
      "name": "Unauthorized",
      "type": "error"
    },
    {
      "anonymous": false,
      "inputs": [
        {
          "indexed": true,
          "internalType": "uint256",
          "name": "agentClientId",
          "type": "uint256"
        },
        {
          "indexed": true,
          "internalType": "uint256",
          "name": "agentServerId",
          "type": "uint256"
        },
        {
          "indexed": true,
          "internalType": "bytes32",
          "name": "feedbackAuthId",
          "type": "bytes32"
        }
      ],
      "name": "AuthFeedback",
      "type": "event"
    },
    {
      "anonymous": false,
      "inputs": [
        {
          "indexed": true,
          "internalType": "uint256",
          "name": "agentId",
          "type": "uint256"
        },
        {
          "indexed": false,
          "internalType": "uint256",
          "name": "score",
          "type": "uint256"
        },
        {
          "indexed": true,
          "internalType": "address",
          "name": "validator",
          "type": "address"
        }
      ],
      "name": "FeedbackSubmitted",
      "type": "event"
    },
    {
      "inputs": [
        {
          "internalType": "uint256",
          "name": "agentClientId",
          "type": "uint256"
        },
        {
          "internalType": "uint256",
          "name": "agentServerId",
          "type": "uint256"
        }
      ],
      "name": "acceptFeedback",
      "outputs": [],
      "stateMutability": "nonpayable",
      "type": "function"
    },
    {
      "inputs": [
        {
          "internalType": "address",
          "name": "",
          "type": "address"
        }
      ],
      "name": "authorizedValidators",
      "outputs": [
        {
          "internalType": "bool",
          "name": "",
          "type": "bool"
        }
      ],
      "stateMutability": "view",
      "type": "function"
    },
    {
      "inputs": [
        {
          "internalType": "uint256",
          "name": "agentId",
          "type": "uint256"
        }
      ],
      "name": "getSummary",
      "outputs": [
        {
          "internalType": "uint256",
          "name": "",
          "type": "uint256"
        }
      ],
      "stateMutability": "view",
      "type": "function"
    },
    {
      "inputs": [],
      "name": "identityRegistry",
      "outputs": [
        {
          "internalType": "contract IIdentityRegistry",
          "name": "",
          "type": "address"
        }
      ],
      "stateMutability": "view",
      "type": "function"
    },
    {
      "inputs": [],
      "name": "owner",
      "outputs": [
        {
          "internalType": "address",
          "name": "",
          "type": "address"
        }
      ],
      "stateMutability": "view",
      "type": "function"
    },
    {
      "inputs": [
        {
          "internalType": "uint256",
          "name": "agentId",
          "type": "uint256"
        }
      ],
      "name": "readFeedback",
      "outputs": [
        {
          "internalType": "uint256",
          "name": "",
          "type": "uint256"
        }
      ],
      "stateMutability": "view",
      "type": "function"
    },
    {
      "inputs": [
        {
          "internalType": "address",
          "name": "validator",
          "type": "address"
        },
        {
          "internalType": "bool",
          "name": "status",
          "type": "bool"
        }
      ],
      "name": "setValidator",
      "outputs": [],
      "stateMutability": "nonpayable",
      "type": "function"
    },
    {
      "inputs": [
        {
          "internalType": "uint256",
          "name": "agentId",
          "type": "uint256"
        },
        {
          "internalType": "uint256",
          "name": "score",
          "type": "uint256"
        }
      ],
      "name": "submitFeedback",
      "outputs": [],
      "stateMutability": "nonpayable",
      "type": "function"
    }
  ],
  "bytecode": "0x60a06040523480156200001157600080fd5b50604051620013ad380380620013ad8339818101604052810190620000379190620001db565b600073ffffffffffffffffffffffffffffffffffffffff168173ffffffffffffffffffffffffffffffffffffffff16036200009e576040517f28123ecf00000000000000000000000000000000000000000000000000000000815260040160405180910390fd5b336000806101000a81548173ffffffffffffffffffffffffffffffffffffffff021916908373ffffffffffffffffffffffffffffffffffffffff1602179055506001600360003373ffffffffffffffffffffffffffffffffffffffff1673ffffffffffffffffffffffffffffffffffffffff16815260200190815260200160002060006101000a81548160ff0219169083151502179055508073ffffffffffffffffffffffffffffffffffffffff1660808173ffffffffffffffffffffffffffffffffffffffff1681525050506200020d565b600080fd5b600073ffffffffffffffffffffffffffffffffffffffff82169050919050565b6000620001a38262000176565b9050919050565b620001b58162000196565b8114620001c157600080fd5b50565b600081519050620001d581620001aa565b92915050565b600060208284031215620001f457620001f362000171565b5b60006200020484828501620001c4565b91505092915050565b60805161116862000245600039600081816102320152818161048f015281816106550152818161076b015261095c01526111686000f3fe608060405234801561001057600080fd5b50600436106100885760003560e01c8063829670d91161005b578063829670d9146101275780638524d988146101435780638da5cb5b1461015f578063aee144601461017d57610088565b80630cb504491461008d578063134e18f4146100bd5780634623c91d146100db57806358714163146100f7575b600080fd5b6100a760048036038101906100a29190610b35565b6101ad565b6040516100b49190610b71565b60405180910390f35b6100c5610230565b6040516100d29190610c0b565b60405180910390f35b6100f560048036038101906100f09190610c9c565b610254565b005b610111600480360381019061010c9190610cdc565b610361565b60405161011e9190610d18565b60405180910390f35b610141600480360381019061013c9190610d33565b610381565b005b61015d60048036038101906101589190610d33565b610651565b005b610167610933565b6040516101749190610d82565b60405180910390f35b61019760048036038101906101929190610b35565b610957565b6040516101a49190610b71565b60405180910390f35b60003073ffffffffffffffffffffffffffffffffffffffff1663aee14460836040518263ffffffff1660e01b81526004016101e89190610b71565b602060405180830381865afa158015610205573d6000803e3d6000fd5b505050506040513d601f19601f820116820180604052508101906102299190610db2565b9050919050565b7f000000000000000000000000000000000000000000000000000000000000000081565b60008054906101000a900473ffffffffffffffffffffffffffffffffffffffff1673ffffffffffffffffffffffffffffffffffffffff163373ffffffffffffffffffffffffffffffffffffffff1614610306573360008054906101000a900473ffffffffffffffffffffffffffffffffffffffff166040517f295a81c10000000000000000000000000000000000000000000000000000000081526004016102fd929190610ddf565b60405180910390fd5b80600360008473ffffffffffffffffffffffffffffffffffffffff1673ffffffffffffffffffffffffffffffffffffffff16815260200190815260200160002060006101000a81548160ff0219169083151502179055505050565b60036020528060005260406000206000915054906101000a900460ff1681565b600360003373ffffffffffffffffffffffffffffffffffffffff1673ffffffffffffffffffffffffffffffffffffffff16815260200190815260200160002060009054906101000a900460ff16158015610427575060008054906101000a900473ffffffffffffffffffffffffffffffffffffffff1673ffffffffffffffffffffffffffffffffffffffff163373ffffffffffffffffffffffffffffffffffffffff1614155b1561048b573360008054906101000a900473ffffffffffffffffffffffffffffffffffffffff166040517f295a81c1000000000000000000000000000000000000000000000000000000008152600401610482929190610ddf565b60405180910390fd5b60007f000000000000000000000000000000000000000000000000000000000000000073ffffffffffffffffffffffffffffffffffffffff16632de5aaf7846040518263ffffffff1660e01b81526004016104e69190610b71565b600060405180830381865afa158015610503573d6000803e3d6000fd5b505050506040513d6000823e3d601f19601f8201168201806040525081019061052c9190610f7e565b92505050600073ffffffffffffffffffffffffffffffffffffffff168173ffffffffffffffffffffffffffffffffffffffff16036105a157826040517f0ede97590000000000000000000000000000000000000000000000000000000081526004016105989190610b71565b60405180910390fd5b60648211156105e5576040517f08c379a00000000000000000000000000000000000000000000000000000000081526004016105dc9061104a565b60405180910390fd5b8160026000858152602001908152602001600020819055503373ffffffffffffffffffffffffffffffffffffffff16837f13f9a9a8d13e01495017f1a464477c6d946f1e23a42f97c276113eeef3258dee846040516106449190610b71565b60405180910390a3505050565b60007f000000000000000000000000000000000000000000000000000000000000000073ffffffffffffffffffffffffffffffffffffffff16632de5aaf7846040518263ffffffff1660e01b81526004016106ac9190610b71565b600060405180830381865afa1580156106c9573d6000803e3d6000fd5b505050506040513d6000823e3d601f19601f820116820180604052508101906106f29190610f7e565b92505050600073ffffffffffffffffffffffffffffffffffffffff168173ffffffffffffffffffffffffffffffffffffffff160361076757826040517f0ede975900000000000000000000000000000000000000000000000000000000815260040161075e9190610b71565b60405180910390fd5b60007f000000000000000000000000000000000000000000000000000000000000000073ffffffffffffffffffffffffffffffffffffffff16632de5aaf7846040518263ffffffff1660e01b81526004016107c29190610b71565b600060405180830381865afa1580156107df573d6000803e3d6000fd5b505050506040513d6000823e3d601f19601f820116820180604052508101906108089190610f7e565b92505050600073ffffffffffffffffffffffffffffffffffffffff168173ffffffffffffffffffffffffffffffffffffffff160361087d57826040517f0ede97590000000000000000000000000000000000000000000000000000000081526004016108749190610b71565b60405180910390fd5b8073ffffffffffffffffffffffffffffffffffffffff163373ffffffffffffffffffffffffffffffffffffffff16146108ef5733816040517f295a81c10000000000000000000000000000000000000000000000000000000081526004016108e6929190610ddf565b60405180910390fd5b60006108fb8585610aa4565b90508084867f875b92862bcb577e19434ed5238b2e5a1b58bd8606a26d1a414edf00eee18fd860405160405180910390a45050505050565b60008054906101000a900473ffffffffffffffffffffffffffffffffffffffff1681565b6000807f000000000000000000000000000000000000000000000000000000000000000073ffffffffffffffffffffffffffffffffffffffff16632de5aaf7846040518263ffffffff1660e01b81526004016109b39190610b71565b600060405180830381865afa1580156109d0573d6000803e3d6000fd5b505050506040513d6000823e3d601f19601f820116820180604052508101906109f99190610f7e565b92505050600073ffffffffffffffffffffffffffffffffffffffff168173ffffffffffffffffffffffffffffffffffffffff1603610a6e57826040517f0ede9759000000000000000000000000000000000000000000000000000000008152600401610a659190610b71565b60405180910390fd5b60006002600085815260200190815260200160002054905060008103610a9957605f92505050610a9f565b80925050505b919050565b600046308484600160008154600101919050819055604051602001610acd9594939291906110d3565b60405160208183030381529060405280519060200120905092915050565b6000604051905090565b600080fd5b600080fd5b6000819050919050565b610b1281610aff565b8114610b1d57600080fd5b50565b600081359050610b2f81610b09565b92915050565b600060208284031215610b4b57610b4a610af5565b5b6000610b5984828501610b20565b91505092915050565b610b6b81610aff565b82525050565b6000602082019050610b866000830184610b62565b92915050565b600073ffffffffffffffffffffffffffffffffffffffff82169050919050565b6000819050919050565b6000610bd1610bcc610bc784610b8c565b610bac565b610b8c565b9050919050565b6000610be382610bb6565b9050919050565b6000610bf582610bd8565b9050919050565b610c0581610bea565b82525050565b6000602082019050610c206000830184610bfc565b92915050565b6000610c3182610b8c565b9050919050565b610c4181610c26565b8114610c4c57600080fd5b50565b600081359050610c5e81610c38565b92915050565b60008115159050919050565b610c7981610c64565b8114610c8457600080fd5b50565b600081359050610c9681610c70565b92915050565b60008060408385031215610cb357610cb2610af5565b5b6000610cc185828601610c4f565b9250506020610cd285828601610c87565b9150509250929050565b600060208284031215610cf257610cf1610af5565b5b6000610d0084828501610c4f565b91505092915050565b610d1281610c64565b82525050565b6000602082019050610d2d6000830184610d09565b92915050565b60008060408385031215610d4a57610d49610af5565b5b6000610d5885828601610b20565b9250506020610d6985828601610b20565b9150509250929050565b610d7c81610c26565b82525050565b6000602082019050610d976000830184610d73565b92915050565b600081519050610dac81610b09565b92915050565b600060208284031215610dc857610dc7610af5565b5b6000610dd684828501610d9d565b91505092915050565b6000604082019050610df46000830185610d73565b610e016020830184610d73565b9392505050565b600080fd5b600080fd5b6000601f19601f8301169050919050565b7f4e487b7100000000000000000000000000000000000000000000000000000000600052604160045260246000fd5b610e5b82610e12565b810181811067ffffffffffffffff82111715610e7a57610e79610e23565b5b80604052505050565b6000610e8d610aeb565b9050610e998282610e52565b919050565b600067ffffffffffffffff821115610eb957610eb8610e23565b5b610ec282610e12565b9050602081019050919050565b60005b83811015610eed578082015181840152602081019050610ed2565b60008484015250505050565b6000610f0c610f0784610e9e565b610e83565b905082815260208101848484011115610f2857610f27610e0d565b5b610f33848285610ecf565b509392505050565b600082601f830112610f5057610f4f610e08565b5b8151610f60848260208601610ef9565b91505092915050565b600081519050610f7881610c38565b92915050565b600080600060608486031215610f9757610f96610af5565b5b6000610fa586828701610d9d565b935050602084015167ffffffffffffffff811115610fc657610fc5610afa565b5b610fd286828701610f3b565b9250506040610fe386828701610f69565b9150509250925092565b600082825260208201905092915050565b7f53636f7265206d757374206265206265747765656e203020616e642031303000600082015250565b6000611034601f83610fed565b915061103f82610ffe565b602082019050919050565b6000602082019050818103600083015261106381611027565b9050919050565b6000819050919050565b61108561108082610aff565b61106a565b82525050565b60008160601b9050919050565b60006110a38261108b565b9050919050565b60006110b582611098565b9050919050565b6110cd6110c882610c26565b6110aa565b82525050565b60006110df8288611074565b6020820191506110ef82876110bc565b6014820191506110ff8286611074565b60208201915061110f8285611074565b60208201915061111f8284611074565b602082019150819050969550505050505056fea26469706673582212206199ffead5e0624dfaeaed4233ca3c917b73c17646274bc777e196f9496d7d3864736f6c63430008140033",
  "linkReferences": {},
  "deployedLinkReferences": {}
}